{
  "_format": "hh-sol-artifact-1",
  "contractName": "BookingEscrow",
  "sourceName": "contracts/BookingEscrow.sol",
  "abi": [
    {
      "anonymous": false,
      "inputs": [
        {
          "indexed": true,
          "internalType": "uint256",
          "name": "bookingId",
          "type": "uint256"
        },
        {
          "indexed": false,
          "internalType": "address",
          "name": "lessee",
          "type": "address"
        },
        {
          "indexed": false,
          "internalType": "address",
          "name": "lessor",
          "type": "address"
        },
        {
          "indexed": false,
          "internalType": "uint256",
          "name": "amount",
          "type": "uint256"
        }
      ],
      "name": "BookingPaid",
      "type": "event"
    },
    {
      "anonymous": false,
      "inputs": [
        {
          "indexed": true,
          "internalType": "uint256",
          "name": "bookingId",
          "type": "uint256"
        },
        {
          "indexed": false,
          "internalType": "address",
          "name": "confirmer",
          "type": "address"
        }
      ],
      "name": "Confirmed",
      "type": "event"
    },
    {
      "anonymous": false,
      "inputs": [
        {
          "indexed": true,
          "internalType": "uint256",
          "name": "bookingId",
          "type": "uint256"
        }
      ],
      "name": "FundsReleased",
      "type": "event"
    },
    {
      "inputs": [],
      "name": "bookingCounter",
      "outputs": [
        {
          "internalType": "uint256",
          "name": "",
          "type": "uint256"
        }
      ],
      "stateMutability": "view",
      "type": "function"
    },
    {
      "inputs": [
        {
          "internalType": "uint256",
          "name": "",
          "type": "uint256"
        }
      ],
      "name": "bookings",
      "outputs": [
        {
          "internalType": "address",
          "name": "lessee",
          "type": "address"
        },
        {
          "internalType": "address",
          "name": "lessor",
          "type": "address"
        },
        {
          "internalType": "uint256",
          "name": "rentalFee",
          "type": "uint256"
        },
        {
          "internalType": "uint256",
          "name": "securityDeposit",
          "type": "uint256"
        },
        {
          "internalType": "uint256",
          "name": "platformFee",
          "type": "uint256"
        },
        {
          "internalType": "bool",
          "name": "lesseeConfirmed",
          "type": "bool"
        },
        {
          "internalType": "bool",
          "name": "lessorConfirmed",
          "type": "bool"
        },
        {
          "internalType": "bool",
          "name": "isActive",
          "type": "bool"
        }
      ],
      "stateMutability": "view",
      "type": "function"
    },
    {
      "inputs": [
        {
          "internalType": "uint256",
          "name": "bookingId",
          "type": "uint256"
        }
      ],
      "name": "confirmReturnByLessee",
      "outputs": [],
      "stateMutability": "nonpayable",
      "type": "function"
    },
    {
      "inputs": [
        {
          "internalType": "uint256",
          "name": "bookingId",
          "type": "uint256"
        }
      ],
      "name": "confirmReturnByLessor",
      "outputs": [],
      "stateMutability": "nonpayable",
      "type": "function"
    },
    {
      "inputs": [
        {
          "internalType": "address",
          "name": "lessor",
          "type": "address"
        },
        {
          "internalType": "uint256",
          "name": "rentalFee",
          "type": "uint256"
        },
        {
          "internalType": "uint256",
          "name": "securityDeposit",
          "type": "uint256"
        },
        {
          "internalType": "uint256",
          "name": "platformFee",
          "type": "uint256"
        }
      ],
      "name": "payBooking",
      "outputs": [
        {
          "internalType": "uint256",
          "name": "",
          "type": "uint256"
        }
      ],
      "stateMutability": "payable",
      "type": "function"
    },
    {
      "inputs": [],
      "name": "platformWallet",
      "outputs": [
        {
          "internalType": "address",
          "name": "",
          "type": "address"
        }
      ],
      "stateMutability": "view",
      "type": "function"
    }
  ],
  "bytecode": "0x608060405273951a07844fb260aa1182b3bb7e1ec7225935c54f6000806101000a81548173ffffffffffffffffffffffffffffffffffffffff021916908373ffffffffffffffffffffffffffffffffffffffff160217905550348015606357600080fd5b50610e88806100736000396000f3fe6080604052600436106100555760003560e01c8063108e33631461005a5780631dab301e1461008357806352105ef3146100c7578063afb9bfba146100f0578063d287ac4214610120578063fa2af9da1461014b575b600080fd5b34801561006657600080fd5b50610081600480360381019061007c91906109d0565b610176565b005b34801561008f57600080fd5b506100aa60048036038101906100a591906109d0565b6102f4565b6040516100be989796959493929190610a68565b60405180910390f35b3480156100d357600080fd5b506100ee60048036038101906100e991906109d0565b6103a3565b005b61010a60048036038101906101059190610b12565b610521565b6040516101179190610b79565b60405180910390f35b34801561012c57600080fd5b50610135610771565b6040516101429190610b79565b60405180910390f35b34801561015757600080fd5b50610160610777565b60405161016d9190610b94565b60405180910390f35b806002600082815260200190815260200160002060000160009054906101000a900473ffffffffffffffffffffffffffffffffffffffff1673ffffffffffffffffffffffffffffffffffffffff163373ffffffffffffffffffffffffffffffffffffffff161461021b576040517f08c379a000000000000000000000000000000000000000000000000000000000815260040161021290610c0c565b60405180910390fd5b816002600082815260200190815260200160002060050160029054906101000a900460ff1661027f576040517f08c379a000000000000000000000000000000000000000000000000000000000815260040161027690610c78565b60405180910390fd5b60016002600085815260200190815260200160002060050160006101000a81548160ff021916908315150217905550827f6f220d98c15dbd07fdc24781b682ea34f92411fc61b83c761dd927afbe02d3fd336040516102de9190610b94565b60405180910390a26102ef8361079b565b505050565b60026020528060005260406000206000915090508060000160009054906101000a900473ffffffffffffffffffffffffffffffffffffffff16908060010160009054906101000a900473ffffffffffffffffffffffffffffffffffffffff16908060020154908060030154908060040154908060050160009054906101000a900460ff16908060050160019054906101000a900460ff16908060050160029054906101000a900460ff16905088565b806002600082815260200190815260200160002060010160009054906101000a900473ffffffffffffffffffffffffffffffffffffffff1673ffffffffffffffffffffffffffffffffffffffff163373ffffffffffffffffffffffffffffffffffffffff1614610448576040517f08c379a000000000000000000000000000000000000000000000000000000000815260040161043f90610ce4565b60405180910390fd5b816002600082815260200190815260200160002060050160029054906101000a900460ff166104ac576040517f08c379a00000000000000000000000000000000000000000000000000000000081526004016104a390610c78565b60405180910390fd5b60016002600085815260200190815260200160002060050160016101000a81548160ff021916908315150217905550827f6f220d98c15dbd07fdc24781b682ea34f92411fc61b83c761dd927afbe02d3fd3360405161050b9190610b94565b60405180910390a261051c8361079b565b505050565b60008183856105309190610d33565b61053a9190610d33565b341461057b576040517f08c379a000000000000000000000000000000000000000000000000000000000815260040161057290610db3565b60405180910390fd5b6001600081548092919061058e90610dd3565b91905055506040518061010001604052803373ffffffffffffffffffffffffffffffffffffffff1681526020018673ffffffffffffffffffffffffffffffffffffffff1681526020018581526020018481526020018381526020016000151581526020016000151581526020016001151581525060026000600154815260200190815260200160002060008201518160000160006101000a81548173ffffffffffffffffffffffffffffffffffffffff021916908373ffffffffffffffffffffffffffffffffffffffff16021790555060208201518160010160006101000a81548173ffffffffffffffffffffffffffffffffffffffff021916908373ffffffffffffffffffffffffffffffffffffffff16021790555060408201518160020155606082015181600301556080820151816004015560a08201518160050160006101000a81548160ff02191690831515021790555060c08201518160050160016101000a81548160ff02191690831515021790555060e08201518160050160026101000a81548160ff0219169083151502179055509050506001547f565b320a21d438bf27d72609b8c1c84685480364a0a51468eb59919fff33dd4a33873460405161075c93929190610e1b565b60405180910390a26001549050949350505050565b60015481565b60008054906101000a900473ffffffffffffffffffffffffffffffffffffffff1681565b60006002600083815260200190815260200160002090508060050160009054906101000a900460ff1680156107de57508060050160019054906101000a900460ff165b80156107f857508060050160029054906101000a900460ff165b156109915760008160050160026101000a81548160ff0219169083151502179055508060010160009054906101000a900473ffffffffffffffffffffffffffffffffffffffff1673ffffffffffffffffffffffffffffffffffffffff166108fc82600201549081150290604051600060405180830381858888f19350505050158015610888573d6000803e3d6000fd5b508060000160009054906101000a900473ffffffffffffffffffffffffffffffffffffffff1673ffffffffffffffffffffffffffffffffffffffff166108fc82600301549081150290604051600060405180830381858888f193505050501580156108f7573d6000803e3d6000fd5b5060008054906101000a900473ffffffffffffffffffffffffffffffffffffffff1673ffffffffffffffffffffffffffffffffffffffff166108fc82600401549081150290604051600060405180830381858888f19350505050158015610962573d6000803e3d6000fd5b50817f952b264c8e0a06cddb4bbaa6d6af1d565145329fd95bbe72cb2b53942b2dc96660405160405180910390a25b5050565b600080fd5b6000819050919050565b6109ad8161099a565b81146109b857600080fd5b50565b6000813590506109ca816109a4565b92915050565b6000602082840312156109e6576109e5610995565b5b60006109f4848285016109bb565b91505092915050565b600073ffffffffffffffffffffffffffffffffffffffff82169050919050565b6000610a28826109fd565b9050919050565b610a3881610a1d565b82525050565b610a478161099a565b82525050565b60008115159050919050565b610a6281610a4d565b82525050565b600061010082019050610a7e600083018b610a2f565b610a8b602083018a610a2f565b610a986040830189610a3e565b610aa56060830188610a3e565b610ab26080830187610a3e565b610abf60a0830186610a59565b610acc60c0830185610a59565b610ad960e0830184610a59565b9998505050505050505050565b610aef81610a1d565b8114610afa57600080fd5b50565b600081359050610b0c81610ae6565b92915050565b60008060008060808587031215610b2c57610b2b610995565b5b6000610b3a87828801610afd565b9450506020610b4b878288016109bb565b9350506040610b5c878288016109bb565b9250506060610b6d878288016109bb565b91505092959194509250565b6000602082019050610b8e6000830184610a3e565b92915050565b6000602082019050610ba96000830184610a2f565b92915050565b600082825260208201905092915050565b7f4e6f74206c657373656500000000000000000000000000000000000000000000600082015250565b6000610bf6600a83610baf565b9150610c0182610bc0565b602082019050919050565b60006020820190508181036000830152610c2581610be9565b9050919050565b7f426f6f6b696e67206e6f74206163746976650000000000000000000000000000600082015250565b6000610c62601283610baf565b9150610c6d82610c2c565b602082019050919050565b60006020820190508181036000830152610c9181610c55565b9050919050565b7f4e6f74206c6573736f7200000000000000000000000000000000000000000000600082015250565b6000610cce600a83610baf565b9150610cd982610c98565b602082019050919050565b60006020820190508181036000830152610cfd81610cc1565b9050919050565b7f4e487b7100000000000000000000000000000000000000000000000000000000600052601160045260246000fd5b6000610d3e8261099a565b9150610d498361099a565b9250828201905080821115610d6157610d60610d04565b5b92915050565b7f496e636f727265637420616d6f756e7400000000000000000000000000000000600082015250565b6000610d9d601083610baf565b9150610da882610d67565b602082019050919050565b60006020820190508181036000830152610dcc81610d90565b9050919050565b6000610dde8261099a565b91507fffffffffffffffffffffffffffffffffffffffffffffffffffffffffffffffff8203610e1057610e0f610d04565b5b600182019050919050565b6000606082019050610e306000830186610a2f565b610e3d6020830185610a2f565b610e4a6040830184610a3e565b94935050505056fea2646970667358221220f8eddcc7bf05c5f325dc14078dff9b2618d74bca15c900972b2df5a372ddf6ec64736f6c634300081c0033",
  "linkReferences": {},
  "deployedLinkReferences": {}
}