{
  "_format": "hh-sol-artifact-1",
  "contractName": "EscrowBooking",
  "sourceName": "contracts/EscrowBooking.sol",
  "abi": [
    {
      "anonymous": false,
      "inputs": [
        {
          "indexed": true,
          "internalType": "uint256",
          "name": "bookingId",
          "type": "uint256"
        },
        {
          "indexed": true,
          "internalType": "address",
          "name": "lessee",
          "type": "address"
        },
        {
          "indexed": false,
          "internalType": "uint256",
          "name": "amount",
          "type": "uint256"
        }
      ],
      "name": "Deposited",
      "type": "event"
    },
    {
      "anonymous": false,
      "inputs": [
        {
          "indexed": true,
          "internalType": "uint256",
          "name": "bookingId",
          "type": "uint256"
        },
        {
          "indexed": true,
          "internalType": "address",
          "name": "lessor",
          "type": "address"
        },
        {
          "indexed": false,
          "internalType": "uint256",
          "name": "amount",
          "type": "uint256"
        }
      ],
      "name": "Released",
      "type": "event"
    },
    {
      "inputs": [
        {
          "internalType": "uint256",
          "name": "",
          "type": "uint256"
        }
      ],
      "name": "bookings",
      "outputs": [
        {
          "internalType": "address",
          "name": "lessee",
          "type": "address"
        },
        {
          "internalType": "address",
          "name": "lessor",
          "type": "address"
        },
        {
          "internalType": "uint256",
          "name": "amount",
          "type": "uint256"
        },
        {
          "internalType": "bool",
          "name": "isPaid",
          "type": "bool"
        },
        {
          "internalType": "bool",
          "name": "isReleased",
          "type": "bool"
        }
      ],
      "stateMutability": "view",
      "type": "function"
    },
    {
      "inputs": [
        {
          "internalType": "uint256",
          "name": "bookingId",
          "type": "uint256"
        }
      ],
      "name": "deposit",
      "outputs": [],
      "stateMutability": "payable",
      "type": "function"
    },
    {
      "inputs": [
        {
          "internalType": "uint256",
          "name": "bookingId",
          "type": "uint256"
        },
        {
          "internalType": "address",
          "name": "lessor",
          "type": "address"
        }
      ],
      "name": "registerBooking",
      "outputs": [],
      "stateMutability": "nonpayable",
      "type": "function"
    },
    {
      "inputs": [
        {
          "internalType": "uint256",
          "name": "bookingId",
          "type": "uint256"
        }
      ],
      "name": "release",
      "outputs": [],
      "stateMutability": "nonpayable",
      "type": "function"
    },
    {
      "stateMutability": "payable",
      "type": "receive"
    }
  ],
  "bytecode": "0x6080604052348015600f57600080fd5b50610f058061001f6000396000f3fe6080604052600436106100435760003560e01c80631dab301e1461008857806337bdc99b146100c9578063b6b55f25146100f2578063dfcc60451461010e57610083565b36610083576040517f08c379a000000000000000000000000000000000000000000000000000000000815260040161007a906108f0565b60405180910390fd5b600080fd5b34801561009457600080fd5b506100af60048036038101906100aa919061094b565b610137565b6040516100c09594939291906109e3565b60405180910390f35b3480156100d557600080fd5b506100f060048036038101906100eb919061094b565b6101c7565b005b61010c6004803603810190610107919061094b565b61047f565b005b34801561011a57600080fd5b5061013560048036038101906101309190610a62565b610635565b005b60006020528060005260406000206000915090508060000160009054906101000a900473ffffffffffffffffffffffffffffffffffffffff16908060010160009054906101000a900473ffffffffffffffffffffffffffffffffffffffff16908060020154908060030160009054906101000a900460ff16908060030160019054906101000a900460ff16905085565b600080600083815260200190815260200160002090503373ffffffffffffffffffffffffffffffffffffffff168160000160009054906101000a900473ffffffffffffffffffffffffffffffffffffffff1673ffffffffffffffffffffffffffffffffffffffff161461026f576040517f08c379a000000000000000000000000000000000000000000000000000000000815260040161026690610aee565b60405180910390fd5b8060030160009054906101000a900460ff166102c0576040517f08c379a00000000000000000000000000000000000000000000000000000000081526004016102b790610b5a565b60405180910390fd5b8060030160019054906101000a900460ff1615610312576040517f08c379a000000000000000000000000000000000000000000000000000000000815260040161030990610bc6565b60405180910390fd5b60018160030160016101000a81548160ff02191690831515021790555060008160010160009054906101000a900473ffffffffffffffffffffffffffffffffffffffff1673ffffffffffffffffffffffffffffffffffffffff16826002015460405161037d90610c17565b60006040518083038185875af1925050503d80600081146103ba576040519150601f19603f3d011682016040523d82523d6000602084013e6103bf565b606091505b5050905080610403576040517f08c379a00000000000000000000000000000000000000000000000000000000081526004016103fa90610c78565b60405180910390fd5b8160010160009054906101000a900473ffffffffffffffffffffffffffffffffffffffff1673ffffffffffffffffffffffffffffffffffffffff16837f3bfce8de0db7450cc169b94323c210e69a36c6a4a58c9f5d96bec4973adce39284600201546040516104729190610c98565b60405180910390a3505050565b600080600083815260200190815260200160002090503373ffffffffffffffffffffffffffffffffffffffff168160000160009054906101000a900473ffffffffffffffffffffffffffffffffffffffff1673ffffffffffffffffffffffffffffffffffffffff1614610527576040517f08c379a000000000000000000000000000000000000000000000000000000000815260040161051e90610cff565b60405180910390fd5b8060030160009054906101000a900460ff1615610579576040517f08c379a000000000000000000000000000000000000000000000000000000000815260040161057090610d6b565b60405180910390fd5b600034116105bc576040517f08c379a00000000000000000000000000000000000000000000000000000000081526004016105b390610dd7565b60405180910390fd5b34816002018190555060018160030160006101000a81548160ff0219169083151502179055503373ffffffffffffffffffffffffffffffffffffffff16827f1599c0fcf897af5babc2bfcf707f5dc050f841b044d97c3251ecec35b9abf80b346040516106299190610c98565b60405180910390a35050565b600073ffffffffffffffffffffffffffffffffffffffff1660008084815260200190815260200160002060010160009054906101000a900473ffffffffffffffffffffffffffffffffffffffff1673ffffffffffffffffffffffffffffffffffffffff16146106d9576040517f08c379a00000000000000000000000000000000000000000000000000000000081526004016106d090610e43565b60405180910390fd5b600073ffffffffffffffffffffffffffffffffffffffff168173ffffffffffffffffffffffffffffffffffffffff1603610748576040517f08c379a000000000000000000000000000000000000000000000000000000000815260040161073f90610eaf565b60405180910390fd5b6040518060a001604052803373ffffffffffffffffffffffffffffffffffffffff1681526020018273ffffffffffffffffffffffffffffffffffffffff168152602001600081526020016000151581526020016000151581525060008084815260200190815260200160002060008201518160000160006101000a81548173ffffffffffffffffffffffffffffffffffffffff021916908373ffffffffffffffffffffffffffffffffffffffff16021790555060208201518160010160006101000a81548173ffffffffffffffffffffffffffffffffffffffff021916908373ffffffffffffffffffffffffffffffffffffffff1602179055506040820151816002015560608201518160030160006101000a81548160ff02191690831515021790555060808201518160030160016101000a81548160ff0219169083151502179055509050505050565b600082825260208201905092915050565b7f557365206465706f7369742066756e6374696f6e000000000000000000000000600082015250565b60006108da601483610893565b91506108e5826108a4565b602082019050919050565b60006020820190508181036000830152610909816108cd565b9050919050565b600080fd5b6000819050919050565b61092881610915565b811461093357600080fd5b50565b6000813590506109458161091f565b92915050565b60006020828403121561096157610960610910565b5b600061096f84828501610936565b91505092915050565b600073ffffffffffffffffffffffffffffffffffffffff82169050919050565b60006109a382610978565b9050919050565b6109b381610998565b82525050565b6109c281610915565b82525050565b60008115159050919050565b6109dd816109c8565b82525050565b600060a0820190506109f860008301886109aa565b610a0560208301876109aa565b610a1260408301866109b9565b610a1f60608301856109d4565b610a2c60808301846109d4565b9695505050505050565b610a3f81610998565b8114610a4a57600080fd5b50565b600081359050610a5c81610a36565b92915050565b60008060408385031215610a7957610a78610910565b5b6000610a8785828601610936565b9250506020610a9885828601610a4d565b9150509250929050565b7f4f6e6c79206c65737365652063616e2072656c65617365000000000000000000600082015250565b6000610ad8601783610893565b9150610ae382610aa2565b602082019050919050565b60006020820190508181036000830152610b0781610acb565b9050919050565b7f4e6f742079657420706169640000000000000000000000000000000000000000600082015250565b6000610b44600c83610893565b9150610b4f82610b0e565b602082019050919050565b60006020820190508181036000830152610b7381610b37565b9050919050565b7f416c72656164792072656c656173656400000000000000000000000000000000600082015250565b6000610bb0601083610893565b9150610bbb82610b7a565b602082019050919050565b60006020820190508181036000830152610bdf81610ba3565b9050919050565b600081905092915050565b50565b6000610c01600083610be6565b9150610c0c82610bf1565b600082019050919050565b6000610c2282610bf4565b9150819050919050565b7f5472616e73666572206661696c65640000000000000000000000000000000000600082015250565b6000610c62600f83610893565b9150610c6d82610c2c565b602082019050919050565b60006020820190508181036000830152610c9181610c55565b9050919050565b6000602082019050610cad60008301846109b9565b92915050565b7f4f6e6c79206c65737365652063616e206465706f736974000000000000000000600082015250565b6000610ce9601783610893565b9150610cf482610cb3565b602082019050919050565b60006020820190508181036000830152610d1881610cdc565b9050919050565b7f416c726561647920706169640000000000000000000000000000000000000000600082015250565b6000610d55600c83610893565b9150610d6082610d1f565b602082019050919050565b60006020820190508181036000830152610d8481610d48565b9050919050565b7f4d7573742073656e6420736f6d65206574686572000000000000000000000000600082015250565b6000610dc1601483610893565b9150610dcc82610d8b565b602082019050919050565b60006020820190508181036000830152610df081610db4565b9050919050565b7f426f6f6b696e6720616c72656164792065786973747300000000000000000000600082015250565b6000610e2d601683610893565b9150610e3882610df7565b602082019050919050565b60006020820190508181036000830152610e5c81610e20565b9050919050565b7f496e76616c6964206c6573736f72206164647265737300000000000000000000600082015250565b6000610e99601683610893565b9150610ea482610e63565b602082019050919050565b60006020820190508181036000830152610ec881610e8c565b905091905056fea26469706673582212206977b4039f9302b5c00a06084c1723ffb65e4930c896e3c41ee47f8a8845ff3d64736f6c634300081c0033",
  "linkReferences": {},
  "deployedLinkReferences": {}
}